:020000040800F2
:100000000009002025050008191A0008E919000850
:10001000051A0008E9190008FD190008270500085D
:100020002705000827050008270500089535000862
:10003000270500082705000827050008A93A000839
:1000400027050008270500082705000827050008E0
:100050002705000827050008D937000805380008DB
:10006000313800085D380008893800082705000885
:1000700027050008270500082705000827050008B0
:10008000270500082705000827050008392A000869
:10009000A52A0008F92A00084D2B0008B5380008E9
:1000A0002705000827050008270500082705000880
:1000B0002705000827050008270500082705000870
:1000C0002705000827050008270500082705000860
:1000D0002705000827050008270500082705000850
:1000E0001D39000827050008270500082705000816
:1000F0002705000827050008270500082705000830
:10010000270500082705000827050008270500081F
:10011000270500082705000827050008270500080F
:1001200027050008270500082705000827050008FF
:1001300027050008270500082705000827050008EF
:1001400027050008270500082705000827050008DF
:1001500027050008270500082705000827050008CF
:100160004FF0FF0C1CEAD0521EBF1CEAD15392EA9A
:100170000C0F93EA0C0F6FD01A4480EA010C400276
:1001800018BF5FEA41211ED04FF0006343EA5010D0
:1001900043EA5111A0FB01310CF00040B1F5000F12
:1001A0003EBF490041EAD3715B0040EA010062F1C1
:1001B0007F02FD2A1DD8B3F1004F40EBC25008BFAB
:1001C00020F00100704790F0000F0CF0004C08BFC9
:1001D00049024CEA502040EA51207F3AC2BFD2F196
:1001E000FF0340EAC250704740F400004FF00003A4
:1001F000013A5DDC12F1190FDCBF00F000407047DE
:10020000C2F10002410021FA02F1C2F1200200FA1B
:1002100002FC5FEA310040F1000053EA4C0308BFE2
:1002200020EADC70704792F0000F00F0004C02BF33
:10023000400010F4000F013AF9D040EA0C0093F0AE
:10024000000F01F0004C02BF490011F4000F013B08
:10025000F9D041EA0C018FE70CEAD15392EA0C0F76
:1002600018BF93EA0C0F0AD030F0004C18BF31F0E1
:10027000004CD8D180EA010000F00040704790F0B7
:10028000000F17BF90F0004F084691F0000F91F05B
:10029000004F14D092EA0C0F01D142020FD193EA21
:1002A0000C0F03D14B0218BF084608D180EA0100A9
:1002B00000F0004040F0FE4040F40000704740F085
:1002C000FE4040F44000704780F0004002E000BF74
:1002D00081F0004142001FBF5FEA410392EA030F31
:1002E0007FEA226C7FEA236C6AD04FEA1262D2EB7B
:1002F0001363C1BFD218414048404140B8BF5B4280
:10030000192B88BF704710F0004F40F4000020F018
:100310007F4018BF404211F0004F41F4000121F02E
:100320007F4118BF494292EA030F3FD0A2F1010278
:1003300041FA03FC10EB0C00C3F1200301FA03F1B6
:1003400000F0004302D5494260EB4000B0F5000FD9
:1003500013D3B0F1807F06D340084FEA310102F198
:100360000102FE2A51D2B1F1004F40EBC25008BF4A
:1003700020F0010040EA03007047490040EB000014
:10038000013A28BFB0F5000FEDD2B0FA80FCACF115
:10039000080CB2EB0C0200FA0CF0AABF00EBC25042
:1003A00052421843BCBFD0401843704792F0000F30
:1003B00081F4000106BF80F400000132013BB5E783
:1003C0004FEA41037FEA226C18BF7FEA236C21D0F9
:1003D00092EA030F04D092F0000F08BF084670475E
:1003E00090EA010F1CBF0020704712F07F4F04D12C
:1003F000400028BF40F00040704712F100723CBF3F
:1004000000F50000704700F0004343F0FE4040F468
:10041000000070477FEA226216BF08467FEA236326
:100420000146420206BF5FEA412390EA010F40F411
:10043000800070474FF0000304E000BF10F000435D
:1004400048BF40425FEA000C08BF704743F0964344
:1004500001464FF000001CE050EA010208BF70475F
:100460004FF000030AE000BF50EA010208BF7047E6
:1004700011F0004302D5404261EB41015FEA010CFB
:1004800002BF84460146002043F0B64308BFA3F1F3
:100490008053A3F50003BCFA8CF2083AA3EBC253D5
:1004A00010DB01FA02FC634400FA02FCC2F12002F4
:1004B000BCF1004F20FA02F243EB020008BF20F02B
:1004C0000100704702F1200201FA02FCC2F1200291
:1004D00050EA4C0021FA02F243EB020008BF20EA86
:1004E000DC70704742000ED2B2F1FE4F0BD34FF0DA
:1004F0009E03B3EB126209D44FEA002343F000439A
:1005000023FA02F070474FF00000704712F1610FBC
:1005100001D1420202D14FF0FF3070474FF000008E
:10052000704700BF02E000F000F8FEE772B6264810
:1005300080F30888254880F3098825482549086004
:10054000022080F31488BFF36F8F03F073F803F079
:10055000D7F84FF0553020491B4A91423CBF41F833
:10056000040BFAE71D49194A91423CBF41F8040BBC
:10057000FAE71B491B4A1C4B9A423EBF51F8040B39
:1005800042F8040BF8E700201849194A91423CBF91
:1005900041F8040BFAE703F051F803F0B3F8154CF7
:1005A000154DAC4203DA54F8041B8847F9E700F014
:1005B0003FF8124C124DAC4203DA54F8041B884742
:1005C000F9E703F039B8000000090020001100200D
:1005D0000000000808ED00E00001002000090020F4
:1005E000B03B000800110020241100202811002039
:1005F000D4250020600100086001000860010008A7
:10060000600100082DE9F04FC1F80CD0C3689D4689
:10061000BDE8F08F002383F311882846A04700200F
:1006200002F034FDFEE702F0CDFC00DFFEE7000043
:10063000F8B500F037FE02F04BFF074602F096FFD8
:10064000064600283ED12B4B9F423BD001339F42B0
:100650003BD0294B27F0FF029A4239D1F8B200F083
:10066000FBFB354642F2107400F0FCFB08B100249D
:10067000254601F03FF978B30024032000F042F84A
:10068000254636B11D4B9F4203D0002402F066FF81
:100690002546002002F026FF194B9B6813F0080343
:1006A0001FD00DB100F044F800F03EFC01F0B6F9A7
:1006B0000546C4B101F0B2F9401BA04213D900F0C5
:1006C00037F8F3E735460024CEE704460125CBE7AB
:1006D00005464FF47A74C7E7B4F57A7F08BF012561
:1006E000CFE71C46E0E700F0D1FC012002F0D4FC8B
:1006F000DFE700BF010007B0000008B0263A09B0EC
:1007000000080140084B187003280CD8DFE800F0FF
:1007100008050208022000F023BE022000F016BEE9
:100720000022024B5A607047281100202C11002033
:1007300038B501F0DFF830B103221F4B1A700022E8
:100740001E4B5A6038BD1E4B1E4A19680131F9D044
:1007500004339342F9D11C4C194DD4F80424AA4215
:10076000F0D31A4B9B6803F1006303F5C8439A4228
:10077000E8D202F0C7FE02F0D9FE002000F0ACFD86
:100780000220FFF7BFFF124BDA690022DA61D96954
:1007900099699A619B6972B64FF0E023C3F8085DCE
:1007A0003021D4F80034D4F8042481F311889D4614
:1007B00083F308881047C5E7281100202C1100207A
:1007C0000064000820640008006000080011002098
:1007D0000010024049F26900084A136899B21B0CE4
:1007E00000FB013344F250611360054B186882B27C
:1007F000000C01FB0200186080B27047201100203D
:100800001C11002010B504460021102200F0C4FD88
:10081000034B03CB206061601868A06010BD00BF6F
:10082000E8F7FF1FF0B5ADF54F7D6CAC4FF4C47227
:1008300007460D462046002100F0AEFD01F0EEF81F
:100840004FF47A72B0FBF2F0224B186093E8070085
:10085000022384E807000DF5E9702382FFF7D2FF39
:100860004EF603031C4907A8238403F055F914230B
:100870000DF2E32284F832310DF12C0C07AB1E4649
:1008800003CE664510605160334602F10802F6D18E
:1008900030680DAE314610600122204600F0C8FDE0
:1008A00000230393AB7E80B2029305F119030193F9
:1008B0000123CDE904600093384604A3D3E9002363
:1008C000E97E01F0FFFB0DF54F7DF0BD9E6AC4216E
:1008D000818A46EE34110020283B00082DE9F041C2
:1008E000264D80462B7A0C46DAB0FBB9204627A964
:1008F00000F0C4FE0746002836D19DF89D60C82E42
:1009000032D801464FF4FA72284600F045FD3246CF
:100910000DF19E0105F1090000F02CFD9DF89C30C1
:100920002E4477722B720BB9E37E2B728122002149
:1009300006AD27A800F030FD0122294627A800F0C7
:10094000E3FE00230393A37E80B2029304F1190314
:1009500001932823CDE904500093404605A3D3E931
:100960000023E17E01F0AEFB5AB0BDE8F08100BF8C
:10097000AFF3008026417272DF25D7B77C210020BB
:10098000F0B54FF48A750024234EF1B005FB0065E5
:1009900096F8D830D822214685F8DC3085F8E84032
:1009A0003AA800F0F9FC06F1090000F0EDFCD5F8DA
:1009B000E430C2B206AF8DF8F00006F109010DF186
:1009C000F100CDE93A3400F0D5FC394601223AA8CD
:1009D00000F0D0FE80B2CDE9047008230127CDE9F4
:1009E000023706F1D80301933023317A00930B4884
:1009F00007A3D3E9002301F065FBA04206DD01F067
:100A00000DF8C5F8E000384671B0F0BD2046FBE7B0
:100A100078F6339F93CACD8D7C2100204C21002095
:100A2000F0B51E4E1E4F1F4D85B0304601F076FBCF
:100A3000044660B310220021684600F0ADFC4FF080
:100A40000003227B6068A16862F303038DF8003025
:100A500002AB03C3019B2268384662F31C03019377
:100A60009DF800306A4643F020038DF800300023E3
:100A7000194602F0E3F9044620B9304601F052FB72
:100A80002C70D2E72B78072B03D801332B7005B0DD
:100A9000F0BD024801F046FBF9E700BF4C21002001
:100AA000A82300207523002070B50D4614461E466D
:100AB00001F064FA50B9022E10D1012C0ED112A30C
:100AC000D3E900230120C5E9002307E0282C10D03A
:100AD00005D8012C09D0052C0FD0002070BD302C7A
:100AE000FBD10BA3D3E90023ECE70BA3D3E900234D
:100AF000E8E70BA3D3E90023E4E70BA3D3E9002342
:100B0000E0E700BFAFF30080401DA12026812A0B43
:100B100078F6339F93CACD8D9E6AC421818A46EEB2
:100B200026417272DF25D7B7F017304A39059E5635
:100B300038B505460E4C0021013500F0EFFBA4F856
:100B4000F051B4F8F00100F0D1FB78B1B4F8F00145
:100B500000F0DCFB014648B9B4F8F00100F0DEFB20
:100B6000B4F8F0310133A4F8F031EAE738BD00BF42
:100B70007C2100202DE9F04F8DB000AF04460D46DA
:100B800001F0FCF9002848D12B7E022B1AD1EB8A08
:100B9000012B17D100F042FF0646FFF71BFE4FF472
:100BA000C873B0FBF3F202FB1303DFF88C829BB235
:100BB00006F516763344C8F80030EB7E33B90022D0
:100BC0009E4B1A703437BD46BDE8F08F284607F1BA
:100BD0001C0100F007FD0028F4D107F10C00FFF71D
:100BE00011FEBD7F07F10C012A4607F11F0002F03C
:100BF00063FF0028E3D10F2D08D8904B1D70D8F863
:100C00000030A3F51673C8F80030DBE7397F002900
:100C1000D8D0204601F0AAF9D4E7EB8A282B6BD074
:100C200010D8012B63D0052BCCD1BFF34F8F844953
:100C3000844BCA6802F4E0621343CB60BFF34F8F6A
:100C400000BFFDE7302BBDD17F4CEA7E237A9A426C
:100C5000B8D194F8DC206B7E9A4240F0E4802846BC
:100C600004F1EA0100F0BAFD06460028AAD10123EA
:100C700084F8E83000F0D2FED4F8E030C01A192829
:100C800040F6B83338BF1920984228BF1846FFF7FE
:100C9000D1FB6E49FFF764FA05462068FFF7CAFBEF
:100CA0006B49FFF75DFA01462846FFF713FBFFF794
:100CB00019FC20604FF48A7294F8D930606802FB06
:100CC00003F562197B6092F8E83053B1D2F8E43052
:100CD000E946834215D0002382F8E830C2F8E030BC
:100CE000CD4663685B4A9B0A013313816AE7294654
:100CF0002046FFF797FD65E729462046FFF7EEFD02
:100D000060E7B2F8EC803B6008F1030A4FEA9A0A08
:100D10004FEA8A02D11DC908A9EBC1039D46EB46E3
:100D20000021584600F038FB05F1EE0142465846D6
:100D3000214400F01FFB3B6813B9012000F0CCFAFE
:100D400094F8D20000F0D2FA054630B9207200F0D3
:100D5000EDFA284600F0C0FAC2E7D4F8D4303BB927
:100D600094F8D200B4F8F031834201D8FFF7E0FEE6
:100D7000D4F8D43043449D4208D294F8D200B4F859
:100D8000F0310130834201D8FFF7D2FE5946606846
:100D90005FFA8AF200F008FB08B9CD468AE763687B
:100DA00094F8D20043446360D4F8D43008EB030ACB
:100DB000C4F8D4A000F09AFA824509D394F8D2304E
:100DC000D4F8D4000133401B84F8D230C4F8D400E6
:100DD000B8F1FF0F0FD80025257200F0A7FA2846BA
:100DE00000F07AFA00F086FD1A4B188108B9FFF777
:100DF0009FFCCD46E6E64FF48A727B6894F8D900F2
:100E000002FB0343D3F8E42083F8E86002F5807224
:100E1000C3F8E060C3F8E420FFF7B2FDFFF700FE7F
:100E200084F8D960B9E740F6B8322368FA339342C0
:100E300094BF23602260C5E64821002045210020A0
:100E400000ED00E00400FA057C210020CDCCCC3D73
:100E50006666663F34110020014B1870704700BF72
:100E60004011002030B54FF00054264B226885B069
:100E70009A4217D1637DABB10025234A23481370F2
:100E8000237DC92203722249C0F8E450093000F0E2
:100E900071FA2046E022294600F07EFA012420461D
:100EA00005B030BD02F06CFB044608B90024F6E73B
:100EB000184A194DD36943F00073D361AA6D174BDB
:100EC0009A42F3D12B6E013B7E2BEFD8144A01AB33
:100ED00007CA83E807001846032100F0DBFC6B6DAE
:100EE00083424FF00003E1D12A6D8A4203BFAB6514
:100EF0002A6E054B1C4601BF1A70EA6D094B1A6039
:100F0000CDE700BF9AAD44C5401100207C210020F0
:100F10001600002000100240006600405041A0B0C2
:100F200058660040181100202DE9F04385B000F00C
:100F3000E1FC0223494C637100230293484B20815A
:100F4000D3F800C0BCF57A7F12D3464F464BB7FBAF
:100F5000FCF59C458CBF0A231123B5FBF3F603FB7C
:100F60001652591EC8B2002A3ED002290B46F4D8A8
:100F70009DF80B303D495A1E9DF80A303C48013B14
:100F80001B0443EA0253BDF80820013A13434B60A7
:100F900001F044FF00230193364B374900934FF48F
:100FA0008052364B364800F0B7FF364B197811B1F6
:100FB000334800F0DBFF00F031FD0546FFF70AFC87
:100FC0004FF4C873B0FBF3F202FB130305F5167080
:100FD0009BB218442C4B186002F0C8FA08B10F23DA
:100FE000238105B0BDE8F083731EB3F5806FBFD2D7
:100FF0004FF47A75C0EBC00E0EF103034FEAE3091C
:1010000009FB0555C3F3C703C11AC9B209F10108A9
:101010008844B5FBF8F5B5F5617F08D90EF1FF33CB
:10102000C3F3C703C11A581E0F28C9B214D84A1EE9
:10103000072A8CBF00220122581800FB0660B7FB6C
:10104000F0F7BC4594D1002A92D0ADF808608DF835
:101050000A308DF80B108BE71346EDE734110020B2
:1010600018110020005125023F420F0010110020EE
:10107000A8230020A90A000844110020750B0008CD
:101080004C21002040110020482100202DE9F04F84
:1010900080A7D7E900670FF20429D9E90089734DC9
:1010A00093B00DF1300AFFF7BBFC18220021504627
:1010B00000F072F9DFF8B8B16E4C002352461946C1
:1010C000584601F0E3FE014650BB102208A800F08C
:1010D00063F9E36883F40053E36000F0A1FC0DF1D1
:1010E000240C0B4612A9024611E903008CE8030008
:1010F0009DF83410C1F30300890649BF0E99BDF86D
:101100003810C1F31C0141F0004158BFC1F30A017E
:101110008DF82C000891284608A901F0E3F9CCE7E6
:10112000284600F02BFF0446002847D100F076FC4B
:10113000DFF844B1DBF8003098423FD300F06EFC9A
:101140000790FFF747FB4FF4C873B0FBF3F101FBC7
:101150001300079A83B202F516701844CBF800000A
:10116000DFF818B18DF820409BF8001011B9012369
:101170008DF8203050460791FFF744FB07990DF199
:101180002100C1F11004E4B2062C28BF062451440A
:10119000224600F0EFF808AB039318230293384B74
:1011A000013401930123E4B2009332463B462846C2
:1011B000049400F029FF00238BF8003000F02EFC8F
:1011C000304A314C1368C31AB3F57A7F30D31060BC
:1011D00000F026FC02460B46284600F0ADFF2846EC
:1011E00000F0CCFE20B3237ADFF8A0B0002B14BFB0
:1011F000032302238BF8053000F010FC4FF47A73C0
:10120000B0FBF3F00122CBF800005146584600F045
:10121000C1F9182302931E4B80B2019340F255137B
:10122000CDE903A0009342464B46284600F0ECFE71
:10123000237ABBB100F0F2FB94F8E83073B9D4F82C
:10124000E03043B1C01A2368FA2B38BFFA230533C4
:10125000B0EB430F02D30020FFF792FB237A002B61
:101260007FF41FAF13B0BDE8F08F00BF4C2100200A
:10127000A823002000100140482100204521002023
:1012800044210020702300207C2100203411002004
:1012900074230020401DA12026812A0BF1C6A7C17E
:1012A000D068080F70B501F0CFFF0024084E094D3B
:1012B000308028683388834208D901F0C1FF2B6849
:1012C00004440133B4F5C84F2B60F2D370BD00BFA6
:1012D000A42300207823002002F044B800F100602D
:1012E000920000F5C84001F0E9BF0000054B1A6804
:1012F000054B1B889B1A834202D9104401F0A0BF02
:101300000020704778230020A4230020024B1B6894
:10131000184401F09BBF00BF78230020024B1B68DC
:10132000184401F0A5BF00BF78230020064991F8BA
:10133000243033B100230822086A81F82430FFF7F3
:10134000CDBF0120704700BF7C230020022802BFD0
:101350004FF40052014B1A61704700BF001001406A
:10136000022802BF4FF00052014B1A61704700BFC4
:1013700000100140002310B5934203D0CC5CC4544C
:101380000133F9E710BD000003460246D01A12F9F6
:10139000011B0029FAD1704703460244934202D050
:1013A00003F8011BFAE770472DE9F8431F4D144677
:1013B00095F824200746884652BBDFF870909CB30E
:1013C00095F824302BB92022FF2148462F62FFF7E1
:1013D000E3FF95F824004146C0F10802A24228BF6D
:1013E000224605EB8000D6B29200FFF7C3FF95F8C6
:1013F0002430A41B1E44F6B2082E17449044E4B2D5
:1014000085F82460DBD1FFF791FF0028D7D108E0F1
:101410002B6A03EB82038342CFD0FFF787FF0028BC
:10142000CBD10020BDE8F8830120FBE77C2300201E
:101430002DE9F3470D46044600219046284640F228
:101440007912FFF7A9FF234620220021284600F049
:10145000EBFF022220212846231D00F0E5FF032296
:1014600022212846631D00F0DFFF032225212846A4
:10147000A31D00F0D9FF10222821284604F10803FB
:1014800000F0D2FF08223821284604F1100300F0B2
:10149000CBFF08224021284604F1110300F0C4FFCD
:1014A00008224821284604F1120300F0BDFF202243
:1014B0005021284604F1140300F0B6FF40227021A9
:1014C000284604F1180300F0AFFF0822B021284697
:1014D00004F1200300F0A8FF0822B821284604F1F7
:1014E000210300F0A1FFC02604F122073B4631464C
:1014F00008222846083600F097FFB6F5A07F07F1CE
:101500000107F3D194F8323031468DF807300822C4
:1015100028460DF1070300F087FF002604F1330A87
:101520009DF807304FEAC6099E4209F5A47720D3FB
:1015300094F83231502B28BF50238DF80730B8F182
:10154000000F08D13946072228460DF1070300F0A5
:101550006BFF09F24F17002604F233149DF8073091
:1015600007EBC6019E420DD30731C80802B0BDE8A3
:10157000F0870AEB060308223946284600F054FF9C
:101580000136CDE7A3190822284600F04DFF0136A9
:10159000E4E7000038B50C4600210546216003460B
:1015A000C4F803102046202200F03EFF20462B1DE9
:1015B0000222202100F038FF20466B1D0322222149
:1015C00000F032FF2046AB1D0322252100F02CFF46
:1015D00020461022282105F1080300F025FF0720EE
:1015E00038BD0000F7B5047F05460E462CB1838A4E
:1015F000122B02D9012003B0F0BD002307221946A7
:101600002846009600F0D2FD731C009301220023AF
:101610000721284600F0CAFDD4B9B31C0093052267
:1016200023460821284600F0C1FD0D24B378102B75
:10163000E0D83746B278BB1B934210D32B7F0734D8
:10164000A88AE408B3B9844294BF00200120D2E7FD
:10165000AB8A0824DB00083BDB08B370E6E7FB1C21
:101660002146009308220023284600F09FFD0834FD
:101670000137DFE7201A18BF0120BCE7F7B5047F68
:1016800005460E462CB1838ACA2B02D9012003B02D
:10169000F0BD0023082219462846009600F086FD7A
:1016A000731CD4B90822009311462346284600F043
:1016B0007DFD10247378C82BE8D8012372785F1C55
:1016C000013B934210D32B7F0734A88AE408B3B9B7
:1016D000844294BF00200120D9E7AB8A0824DB00B4
:1016E000083BDB087370E5E7F319214600930822F5
:1016F0000023284600F05AFD08343B46DEE7201A56
:1017000018BF0120C3E70000F7B50D4604460021CD
:10171000164628468122FFF73FFE23460822002175
:10172000284600F081FE94F901206378002AB8BFB2
:101730007F238DF807309EB90722082128460DF136
:10174000070300F071FE0F27002602349DF80730D2
:1017500007EBC6019E4205D30731C80803B0F0BDB0
:101760000827F1E7A3190822284600F05DFE01369C
:10177000ECE70000F7B50E4605460021144630465A
:10178000CE22FFF709FE2B4628220021304600F02A
:101790004BFE2B7AC82B28BFC8238DF807308CB995
:1017A0000822282130460DF1070300F03DFE3024C9
:1017B0002F469DF807207B1B934205D3E01DC008F0
:1017C00003B0F0BD2824F3E7214607F109030822FE
:1017D000304600F029FE08340137EAE7F7B5047F08
:1017E00005460E4634B1838AB3F5827F02D90120C3
:1017F00003B0F0BD0123102200212846009600F01E
:10180000D5FCDCB9B31C00930922234610212846DD
:1018100000F0CCFC19247388B3F5807FE7D83746F5
:101820007288BB1B934210D32B7F0734A88AE4082D
:10183000B3B9844294BF00200120D9E7AB8A1024B9
:10184000DB00103BDB087380E5E73B1D214600937E
:1018500008220023284600F0A9FC08340137DFE7FE
:10186000201A18BF0120C3E730B5094D0A44914240
:101870000DD011F8013B5840082340F30004013B10
:101880002C4013F0FF0384EA5000F6D1EFE730BD9F
:101890002083B8ED4FF0FF33F7B500EB8106194612
:1018A000DFF848C0DFF848E0B0421BD050F8042B06
:1018B00001AF0192042217F8014B81EA0461082468
:1018C0000D46DB184941013C002DBCBF83EA0C03E7
:1018D00081EA0E0114F0FF04F2D1013A12F0FF0286
:1018E000E9D1E1E7D843C94303B0F0BD9336EAA993
:1018F000EBE1F042F7B56B46354A106851686A462D
:1019000003C308233349344802F0E6F8044690BB89
:101910000A256B46314A106851686A4603C308239A
:101920002F492D4802F0D8F80446002847D0036913
:10193000B3F5CE3F43D8B0F86620B2F57A7F3ED1FA
:10194000284A024402F15C018B4238D35C3B2249B5
:1019500000209E1AFFF788FF07463246002004F158
:101960006401FFF781FFA3689F4228D1E368984292
:1019700008BF002523E00369B3F5CE3F26D8428B8C
:10198000B2F57A7F20D1174A024402F110018B424E
:1019900018D3103B104900209D1AFFF765FF06463B
:1019A0002A46002004F11801FFF75EFFA3689E425B
:1019B00002D1E368984201D00D25AAE70025284608
:1019C00003B0F0BD1025A4E70C25A2E70B25A0E786
:1019D000403B0008DC9B010000640008493B000814
:1019E000909B0100089CFFF7EFF30983EFF3058359
:1019F000014B9B6BFEE700BF00ED00E008B5FFF771
:101A0000F3FF0000EFF30983EFF30583014B5B6BFA
:101A1000FEE700BF00ED00E0FEE7000001F008BDBA
:101A200001F0B4BC2DE9F041456A15B94162BDE849
:101A3000F0814B68AC4623F06047C3F38A4616EA50
:101A4000230638BF3E464FEAD37EC3F380782B4649
:101A50005A68BEEBD27F22F060440AD0002A18DA1E
:101A6000A40CB44217D19D420FD10D60DEE713469E
:101A7000EEE7A74207D102F08044C2F380724245EC
:101A80000BD054B1EFE708D2EDE7CCF800100B60B3
:101A9000CDE7B44201D0B442E5D81A689C46002A8A
:101AA000E5D11960C3E700002DE9F0474FF47F4905
:101AB000089D01F007044FEAD508224405F0070508
:101AC00000EBD100944201D1BDE8F08704F0070794
:101AD00005F0070A57453E4638BF5646111BC6F16A
:101AE00008068E4228BF0E46E108415C08EBD50E81
:101AF00013F80EC0B94029FA06F721FA0AF1FFB22D
:101B00008CEA010147FA0AF739408CEA010C03F824
:101B10000EC034443544D5E7082341F2210280EA5F
:101B2000012001B24000002980B203F1FF33B8BFA9
:101B3000504013F0FF03F4D17047000038B50C4655
:101B40008D18A54200D138BD14F8011BFFF7E4FF42
:101B5000F7E700000346406848B1026899895A6077
:101B60005A89013292B291425A8138BF9A817047A4
:101B700070B504460D4688B0202200216846FFF764
:101B80000BFC20460495FFF7E5FF024658B16B4673
:101B9000054608AE1C4603CCB44228606960234663
:101BA00005F10805F6D1104608B070BD082817D910
:101BB00009280CD00A280CD00B280CD00C280CD0EB
:101BC0000D280CD00E2814BF4020302070470C2068
:101BD000704710207047142070471820704720204D
:101BE00070470000082817D90C280CD910280CD9E8
:101BF00014280CD918280CD920280CD930288CBFCF
:101C00000F200E207047092070470A2070470B20D4
:101C100070470C2070470D20704700002DE9F843F5
:101C2000078C0446072F1ED9D0E9029800254FF6ED
:101C3000FF73C5F12006A5F1200029FA05F108FA85
:101C400006F628FA00F031430143C9B21846FFF7FF
:101C500063FF0835402D0346EBD13A46E169BDE804
:101C6000F843FFF76BBF4FF6FF70BDE8F883000045
:101C700010B54B6823B9CA8A63F30902CA8210BD42
:101C800004691A681C600361C38A013BC3824A600D
:101C9000EFE700002DE9F84F1D46CB8A0F46C3F34E
:101CA00009010529814692460B4630D00020AAB290
:101CB00007F11A049EB2042E1FFA80F80FD890453F
:101CC00003F1010306D3FB8A0A4462F309030120EE
:101CD000FB821AE01AF800600130E654EAE790450A
:101CE000F1D21C23A1F1050BBBFBF3F203FB12BBEA
:101CF0007C681FFA8BF6002C45D14846FFF72AFF77
:101D0000044638B978606FF00200BDE8F88F4FF0F4
:101D10000008E6E70026066078604FF0000BADB2E1
:101D2000454510D90AEB0803221D13F8011B08F1E1
:101D300001089155B1B21B291FFA88F82BD04545EF
:101D400006F10106F1D8FB8AC3F30902154465F3D5
:101D50000903BCE71C46013292B22368002BF9D17B
:101D60006B1F0B441C21B3FBF1F301339BB29A426E
:101D7000D3D2BBF1000FD0D14846FFF7EBFE20B91C
:101D8000C4F800B0BFE70122E7E7C0F800B05E4644
:101D900020600446C1E74545D5D94846FFF7DAFE3D
:101DA00008B92060AFE7C0F800B000262060044604
:101DB000B6E700002DE9F74F1C465B6907468846E9
:101DC0000092002B00F0A480238C2BB1E269002A42
:101DD00000F09E80072B33D807F10C00FFF7BAFE06
:101DE000054628B96FF00205284603B0BDE8F08F1C
:101DF00014220021FFF7D0FA228CE16905F10800D6
:101E0000FFF7B8FA208C48F00041013080B2FFF7AC
:101E1000E9FEFFF7CBFE013880B220840130287440
:101E20006369228C1B782A4403F01F0363F03F038D
:101E30001372384669602946FFF7F4FD0125D3E7A0
:101E4000072202339BB20633B3FBF2F3C18A828AC4
:101E50009BB2521A92B29342C4D84FF000094FF08D
:101E6000800A4E464D4600F10C0301930198FFF79E
:101E700071FE83460028B5D014220021FFF78CFAAA
:101E8000002E3BD10222009BABF808300BF1080E6C
:101E90001FFA82FC0CF10100BCF1060F218C80B20C
:101EA00001D88E422CD3FFF79DFEFFF77FFE8E42B6
:101EB00008BF4FF0400A62690138127880B202F020
:101EC0001F0242EA49120BEB00014AEA020A013002
:101ED00048F0004281F808A08BF8100059463846B7
:101EE000CBF80420FFF79EFD238C0135B3424FF061
:101EF000000A2DB289F00109B8D175E70022C5E7C3
:101F0000E169895D01360EF80210B6B20132BFE711
:101F10006FF0010568E70000F8B5044615460E4667
:101F2000302200211F46FFF737FA069BB5F5001F48
:101F30006360079B28BF4FF6FF72A3624FF0000358
:101F400038BF6A09A760E66197B204F110009A42AF
:101F500006D800230360A782E3822383E360F8BDF1
:101F60000660013330462036F1E7000003781BB9E4
:101F70004BB2002BC8BF017070470000007870475B
:101F8000F8B50C46C969074611B9238C002B37D127
:101F9000257E1F2D34D8387828BB228C072A2CD8D0
:101FA000268A36F003032BD14FF6FF70FFF7C6FDEC
:101FB0004FF6FF7220F001003602400446EA056544
:101FC000400C45EA4025234629463846FFF7F2FEF5
:101FD000002807DD626913780133DBB21F2B88BF4D
:101FE00000231370F8BD218A2D0645EA012505431B
:101FF0002046FFF713FE0246E5E76FF00300F1E726
:102000006FF00100EEE7000070B504461D4616466D
:102010008AB0282200216846FFF7BEF9BDF83830A3
:102020006946ADF810300F9B204605939DF840306F
:10203000CDE902658DF81830119B0793BDF8483043
:10204000ADF82030FFF79CFF0AB070BD2DE9F041DC
:10205000D36905460C4616460BB9138C5BBB377E1D
:102060001F2F28D895F80080B8F1000F26D03046F1
:10207000FFF7D4FD3378210241EAC33141EA080178
:10208000338A41EA076141EA034102463346284662
:1020900041F08001FFF78EFE00280ADD3378012B26
:1020A00007D1726913780133DBB21F2B88BF00237D
:1020B0001370BDE8F0816FF00100FAE76FF00300E4
:1020C000F7E70000F0B504460D461E4617468BB0F4
:1020D000282200216846FFF75FF99DF84C30294619
:1020E0005A1E534253418DF800309DF840306A46E5
:1020F000ADF81030119B204605939DF84830CDE98E
:1021000002768DF81830149B0793BDF85430ADF863
:102110002030FFF79BFF0BB0F0BD0000406A00B11C
:1021200004307047436A1A68426202691A600361A8
:10213000C38A013BC38270472DE9F041D0F820806B
:1021400014461D4641460027174E09B9BDE8F081E7
:10215000D1E90223A21A65EB0303964277EB03034E
:102160001ED2036A8B420DD1FFF782FD036A1B6802
:10217000036203690B60C38A0161016A013B8846FF
:10218000C382E2E7FFF774FD0B68C8F8003003690B
:102190000B60C38A0161013BC382D8F80010D4E709
:1021A00088460968D1E700BF80841E002DE9F04F02
:1021B0008BB00D4614469B468046DDF850900028B3
:1021C00000F01A81B9F1000F00F01681531E3F2B69
:1021D00000F21281012A03D1BBF1000F40F00C8103
:1021E0000023CDE90833B8F81430B5EBC30F4FEA3C
:1021F000C30703D300200BB0BDE8F08F2B199F421B
:10220000D8F80C3036BF7F1B2746FFB21BB9D8F871
:102210001030002B7BD0272D4ED8C5F12806B742B1
:102220004FF0000334BF3E46F6B2009329463246D3
:10223000D8F8080008ABFFF737FCA7EB060A3544CF
:102240005FFA8AFA2821B8F8143003F10053053BED
:10225000DB000493D8F80C300393039B13B1BAF15D
:10226000000F2CD1D8F8100040B1BAF1000F05D002
:102270005246009608AB691AFFF716FC38B2002FD9
:10228000B8D066070AD00AAB03EBD40111F8083CBA
:10229000624202F00702134101F8083C082C3DD9C4
:1022A000102C40F2B680202C40F2B880BBF1000F19
:1022B00000F09D80082335E0BA460026C2E7049B63
:1022C000E02B28BFE02306930B44AB42059315D9BE
:1022D0005A1B924538BF5246039828BFD2B2009687
:1022E000691A08AB04300792FFF7DEFB079A164421
:1022F000AAEB020A1544F6B25FFA8AFA049B069A20
:1023000005999B1A0493039B1B680393A5E700930D
:102310003A462946D8F8080008ABADE7BBF1000FF4
:1023200013D00123B4EBC30F6CD0082C12D89DF846
:102330002030621E23FA02F2D50706D54FF0FF3295
:1023400002FA04F423438DF820309DF8203089F8F8
:10235000003050E7102C12D8BDF82030621E23FA4E
:1023600002F2D10706D54FF0FF3202FA04F42343FC
:10237000ADF82030BDF82030A9F800303BE7202C24
:102380000FD80899631E21FA03F3DA0705D54FF039
:10239000FF3202FA04F40C430894089BC9F8003099
:1023A00029E7402C2BD0DDE90865611EC4F121022C
:1023B000A4F1210326FA01F105FA02F225FA03F34A
:1023C00011431943CB0712D50122A4F12003C4F114
:1023D000200102FA03F322FA01F1A240524243EA39
:1023E000010363EB430332432B43CDE90823DDE9CB
:1023F0000823C9E90023FEE66FF00100FBE66FF059
:102400000800F8E6082CA0D9102CB3D9202CEED85F
:10241000C3E7BBF1000FADD0022383E7BBF1000F90
:10242000BBD004237EE70000012A30B5144638BF34
:1024300001220025402A28BF402285B0012CCDE989
:10244000025517D81B788DF8083053070AD004AB13
:1024500003EBD20515F8083C544204F00704A340EE
:1024600005F8083C0346009102A80021FFF71CFB79
:1024700005B030BD082CE5D9102C03D81B88ADF869
:102480000830E2E7202C02D81B680293DDE7D3E98D
:102490000045CDE90245D8E710B5CB681BB98B6084
:1024A0000B618B8210BD04691A681C600361C38ACA
:1024B000013BC382CA60F0E703064CBFC0F3C030E3
:1024C0000220704708B50246FFF7F6FF022806D142
:1024D0005306C2F30F2001D100F0030008BDC2F380
:1024E0000740FBE72DE9F04F93B0CDE903230A68DD
:1024F00004461046FFF7E0FF02280CBF0026C2F397
:102500000626002A0D46824680F2FD8112F0C0495F
:1025100040F0F981097B002900F0F581022803D001
:102520002378B34240F0F281C2F30463104606936D
:1025300002F07F030593FFF7C5FF059B00224FEADA
:102540008348002348EA0A48294448EA4668CE7886
:10255000CDE90823F309834648EA0008029367D0CF
:10256000059B0246009320465346676808A9B84772
:10257000002800F0CE81276A4FB9414604F10C00D3
:10258000FFF7F6FA074690B96FF0020054E03B6996
:1025900098450DD03F68002FF9D1414604F10C0059
:1025A000FFF7E6FA07460028EED0236A3B60276271
:1025B00097F817C006F01F08CCF3840CACEB0800AA
:1025C0001FFA80FE0028B8BF0EF12000A8EB0C0314
:1025D0001FFA83FEB8BF00B2002B0793BEBF0EF1F7
:1025E00020031BB20793D7E9022152EA010338D036
:1025F0004FF0000C039BDFF800E29A1A049B63EB98
:10260000010196457CEB01032BD36B7B97F81AE015
:10261000734519D1029B002B78D0012821DC786802
:10262000F8B9DFF8D8C1944570EB010316D337E051
:10263000276A27B96FF00C0013B0BDE8F08F3B6933
:102640009845B5D03F68F4E76C4890427CEB0103B5
:1026500001D30020F0E7029B002BFAD0079B0F2B41
:1026600017DCFA7DB30002F0030203F07C0313438E
:10267000FB7539462046FFF7FBFA6B7BBB76029B66
:102680003BB9FB7DC3F38402013262F38603FB7521
:10269000D0E76A7BBB7E9A42DBD1029B002B35D010
:1026A000B309022B32D0039B1422BB60049B002190
:1026B000FB600DA8FEF770FE039B20460A93049B67
:1026C000ADF83EB00B932B1D0C932B7B8DF840A0E7
:1026D000013BDBB2ADF83C30069B8DF841808DF8B4
:1026E0004230059B0AA98DF8433094F82C3083F0D2
:1026F00001038DF84430A3689847FB7DC3F384033E
:10270000013303F01F039B02FB82A2E7FB7DC6F3AC
:102710004012B2EBD31F40F0FF80C3F38403434564
:1027200040F0FD80029A2B7BB609002A52D016F0A9
:10273000010665D1032B40F2F580039B3946BB604F
:10274000049B04F10C00FB60FB8A66F30903FB8227
:102750002B7BAE1D033B3246DBB2FFF79BFA002812
:102760000CDA39462046FFF783FAFB7DC3F3840376
:10277000013303F01F039B02FB8205E7AB88DDE911
:1027800008843B834FF6FF73C9F12000A9F12002B2
:1027900028FA09F104FA00F0014324FA02F2114385
:1027A0001846C9B2FFF7B8F909F10809B9F1400FA5
:1027B0000346E9D13146B8822A7B033AD2B2FFF709
:1027C000BDF9FB7DB882DA43C2F3C01262F3C713CE
:1027D000FB753EE7A6B92E1D013B32463946DBB2FA
:1027E00004F10C00FFF756FA0028BADB2A7B3146C9
:1027F000013AB88AD2B2E2E780841E0040420F005C
:10280000F98A013BC1F309010429DAB25DD800233A
:10281000281D07F11B069A4208D910F801CB013395
:1028200006F801C001310529DBB2F4D1934228BF7B
:102830000023039938BF04330A91049938BFDBB2EF
:102840000B9107F11B010C91796838BF5B190D9151
:102850000E93FB8AADF83EB0C3F309031A44069BFE
:10286000ADF83C208DF84230059B8DF840A08DF8E6
:10287000433094F82C308DF8418083F001038DF8BB
:10288000443000237B602A7BB88A013A291DFFF778
:1028900055F93B8BB882834203D12046A3680AA92D
:1028A000984720460AA9FFF7F7FDFB7DBA8AC3F3D4
:1028B0008403013303F01F039B02FB823B8B9A428C
:1028C0000CBF00206FF01000B6E67B68002BADD087
:1028D000052001E033461C301E68002EFAD1091A8B
:1028E000081D2E1D184401EB090CBCF11B0F5FFAEB
:1028F00089F39BD89A4299D916F8013B09F101094D
:1029000000F8013BEFE76FF0090095E66FF00A0071
:1029100092E66FF00B008FE66FF00D008CE66FF023
:102920000E0089E66FF00F0086E600BFF0B53F4D60
:102930003F4FEB6943F00073EB61EB693D4B9B6AE2
:10294000D3F800623E4046F00106C3F80062D3F8B7
:1029500000423C4044EA002444F00104C3F8004231
:10296000002955D000200646C3F81C02C3F8040213
:10297000C3F80C02C3F8140203EBC00401300E28A4
:10298000C4F84062C4F84462F6D100274FF0010C4D
:102990009678148816F0010F18BFD3F804E20CFAE9
:1029A00004F01CBF40EA0E0EC3F804E216F0020F5A
:1029B00018BFD3F80CE203EBC4041CBF40EA0E0EB0
:1029C000C3F80CE2760748BFD3F8146207F1010799
:1029D00044BF0643C3F814625668B942C4F8406263
:1029E000966802F10C02C4F84462D3F81C4240EA33
:1029F0000400C3F81C02CBD1D3F8002222F001025C
:102A0000C3F80022EB6923F00073EB61EB69F0BDC2
:102A10000122C3F84012C3F84412C3F80412C3F8E9
:102A20001412C3F80C22C3F81C22E5E70010024080
:102A30000000FFFFA8230020184A08B5916A8B68A0
:102A40008B6013F0010104D013F00C0F18BF4FF48A
:102A50008031D80506D513F4406F14BF41F400311E
:102A600041F00201D80306D513F4402F14BF41F4FE
:102A7000802141F00401D3690BB108489847302305
:102A800083F311880021064800F022FB002383F322
:102A90001188BDE8084000F0ABBD00BFA8230020AE
:102AA000B023002038B5124CA36ADD68AA0712D003
:102AB0005A6922F002025A61A36913B1012120462A
:102AC0009847302383F3118800210A4800F000FB67
:102AD000002383F31188EB0606D51021A36AD96081
:102AE000236A0BB102489847BDE8384000F080BD2A
:102AF000A8230020B823002038B5124CA36A1D6912
:102B0000AA0712D05A6922F010025A61A36913B1C0
:102B1000022120469847302383F3118800210A4878
:102B200000F0D6FA002383F31188EB0606D51021B6
:102B3000A36A1961236A0BB102489847BDE838407F
:102B400000F056BDA8230020B823002038B50F4C54
:102B5000A36A5D682A075D600AD5042222701A689C
:102B600022F002021A60636A13B1002120469847DE
:102B70006B0706D5A36A9969236A13B10348090450
:102B80009847BDE8384000F033BD00BFA8230020BF
:102B900010B50E4C204600F02FF90D4B0B211320E1
:102BA000A36200F009F90B21142000F005F90B21B4
:102BB000152000F001F90B21162000F0FDF8BDE80A
:102BC000104000220E201146FFF7B0BEA8230020BF
:102BD000006400400F4B10B59842044605D10E4BDF
:102BE000DA6942F00072DA61DB690122A36A1A60D5
:102BF000A36A5A68D20707D5626851681268D9611A
:102C00001A60064A5A6110BD0121082000F0B0F98F
:102C1000EEE700BFA8230020001002405B87010000
:102C200003291AD8DFE801F0020A0F14836A9B68AF
:102C300013F0E05F14BF012000207047836A98689A
:102C4000C0F380607047836A9868C0F3C0607047C3
:102C5000836A9868C0F300707047002070470000D6
:102C600010B5032927D8DFE801F002272B2F836A4C
:102C70009968C1F30161183103EB011310788406E0
:102C800048BF5468C0F3001158BF94884FEA41010F
:102C900048BF41EAC40100F00F00586048BF41F04E
:102CA0000401906858BF41EA4451D26841F00101E3
:102CB0009860DA60196010BD836A03F5C073DDE7C0
:102CC000836A03F5C873D9E7836A03F5D073D5E740
:102CD00001290AD002290FD081B9836ADA689207E4
:102CE00001D1186903E001207047836AD86810F0A9
:102CF000030018BF01207047836AF2E70020704785
:102D000010B539B9836AD96889071BD11B699C073B
:102D100004D110BD012915D00229FAD1816AD1F858
:102D2000C031D1F8C441D1F8C8011061D1F8CC014B
:102D30005061202008610869800717D1486940F078
:102D4000100012E0816AD1F8B031D1F8B441D1F865
:102D5000B8011061D1F8BC0150612020C860C8687A
:102D6000800703D1486940F002004861C3F3400086
:102D7000C3F38001000140EA4111107920F03000D6
:102D80000143117189064BBF91681189DB085B0D06
:102D90004CBF63F31C0163F30A01137948BF9160D0
:102DA00064F3030313714FEA14234FEA144458BF2A
:102DB000118113705480ACE70122090100F16043D6
:102DC00003F56143C9B283F8001300F01F039A4072
:102DD00043099B0003F1604303F56143C3F880217D
:102DE0001A607047090100F16040C9B200F56D40FA
:102DF00001767047FFF7CCBE01230370002300F17A
:102E00000802C0E9022200F11002C0E90422C0E970
:102E10000633C0E9083343607047000010B5302323
:102E2000044683F31188022341600370FFF7D2FE4A
:102E300004230020237080F3118810BD2DE9F04198
:102E40001F4604460D461646302383F3118800F1D1
:102E500008082378052B0DD029462046FFF7E0FE11
:102E600040B1204632462946FFF7FAFE002080F3A3
:102E7000118808E03946404600F01AF90028E8D0E9
:102E8000002383F31188BDE8F08100002DE9F041B3
:102E90001F4604460D461646302383F3118800F181
:102EA00010082378052B0DD029462046FFF710FF88
:102EB00040B1204632462946FFF722FF002080F32A
:102EC000118808E03946404600F0F2F80028E8D0C2
:102ED000002383F31188BDE8F0810000002382689D
:102EE000037503691B6899689142FBD25A680360B5
:102EF0004260106058607047002382680375036960
:102F00001B6899689142FBD85A6803604260106060
:102F10005860704708B50846302383F311880B7D4D
:102F2000032B05D0042B0DD02BB983F3118808BDDA
:102F300000228B691A604FF0FF338361FFF7CEFFE9
:102F40000023F2E7D1E9003213605A60F3E7000092
:102F5000FFF7C4BF054BD96808751868026853604D
:102F60001A6001220275D860FDF74CBBD8230020FF
:102F700030B50C4B0446DD684B1C87B00FD02B4698
:102F80006846094A00F0CAF82046FFF7E3FF009BB5
:102F900013B1684600F0CAF8A86907B030BDFFF762
:102FA000D9FFF9E7D8230020152F0008044B1A6831
:102FB000DB6890689B68984294BF002001207047AE
:102FC000D8230020084B10B51C68D86822685360CD
:102FD0001A6001222275DC60FFF78EFF0146204651
:102FE000BDE81040FDF70EBBD823002038B5012303
:102FF0000025064C064907482370656000F03EFB3B
:103000000223237085F3118838BD00BF30250020CE
:10301000583B0008D823002000F09AB88B600223A8
:1030200008618B82084670478368A3F1440243F825
:10303000142C026943F8442C426943F8402C094A95
:1030400043F8242CC268A3F1200043F8182C022274
:1030500003F80C2C002203F80B2C034A43F8102C25
:10306000704700BF15060008D823002008B5FFF7F9
:10307000DBFFBDE80840FFF76BBF0000024BDB68D9
:1030800098610F20FFF766BFD8230020302383F319
:103090001188FFF7F3BF000008B50146302383F322
:1030A00011880820FFF764FF002383F3118808BD0F
:1030B000064BDB6839B1426818605A6013604360A0
:1030C0000420FFF755BF4FF0FF307047D823002092
:1030D00038B504460D462068844200D138BD0368E7
:1030E00023605C608561FFF733FFF4E710B50A4C9D
:1030F00023699A6891420CD85A68816003604260E3
:1031000010609A685860511A99604FF0FF33A361BC
:1031100010BD1B68891AECE7D8230020C0E90323FF
:10312000002310B410BC4361FFF7E0BF036881685F
:103130009A680A449A60426813605A6000234FF00C
:10314000FF320360014B9A61704700BFD823002013
:1031500070B5124D2A46EB690133EB6152F8103F0E
:10316000934206D030269A68013A9A602C69A36887
:1031700003B170BDD4E900210A605160236083F37C
:1031800011882046D4E90331984786F31188616994
:103190000029EBD02046FFF7A9FFE7E7D82300205E
:1031A000054A30B5D369D2E908451B1B181945F10A
:1031B0000001C2E9080130BDD8230020002070477B
:1031C000FEE70000704700004FF0FF30704700003E
:1031D000BFF34F8F024AD368DB07FCD4704700BFB0
:1031E0000020024008B5074B1B7853B9FFF7F0FFEA
:1031F000054B1A69120641BF044A5A6002F188322F
:103200005A6008BD48250020002002402301674580
:1032100008B5054B1B7833B9FFF7DAFF034A13698A
:1032200043F08003136108BD4825002000200240C0
:103230007F289ABF00F50030800200207047000010
:103240004FF4806070470000802070477F2808B5E9
:103250000BD8FFF7EDFF00F580630268013204D15F
:1032600004308342F9D1012008BD0020FCE70000B2
:103270007F2810B504461CD8FFF7AAFFFFF7B2FF5E
:10328000F3220D4B4FF48061DA6002221A61FFF7DE
:10329000CFFF58611A6942F040021A61FFF798FFA8
:1032A00000F02EF9FFF7B4FF2046BDE81040FFF70D
:1032B000CDBF002010BD00BF002002402DE9F84323
:1032C000054612F00100144606D04FF4517200205A
:1032D0001E4B1A60BDE8F8831D4BAA189A4204D908
:1032E00040F24932194B1A60F4E7FFF77BFF4FF0C9
:1032F0000109FFF76DFFDFF85C806D1A012C0F46A6
:1033000005EB010603D8FFF783FF0120E2E73B88C6
:10331000C8F8109033800020FFF75AFFC8F810005B
:10332000338831F8022B9BB29A420CD04FF458727A
:10333000064B1A60084B1E60084B1C60084B1F6050
:10334000FFF766FFC6E7023CD8E700BF4425002030
:1033500000000208002002403825002040250020FF
:103360003C250020084908B50B7828B11BB9FFF7A8
:1033700039FF01230B7008BD002BFCD0BDE80840CD
:103380000870FFF745BF00BF4825002038B5EFF3B0
:103390001185BDBBEFF30584C4F308043023C4B129
:1033A00083F31188FFF7FCFE44014B01241A43EA22
:1033B000D06363EB0103A2009B00121843EA9473ED
:1033C00041EB0301C900D00041EA527185F3118835
:1033D00038BD83F31188FFF7E3FE45014B012D1A39
:1033E00043EAD06363EB0103AA009B00121843EA8F
:1033F000957341EB0301C900D00041EA527184F397
:10340000118838BDFFF7CCFE44014B01241A43EA72
:10341000D06363EB0103A2009B00121843EA94738C
:1034200041EB0301C900D00041EA527138BD00BF31
:1034300038B5FFF7ABFF00230F4A104CC00840EA35
:103440004170A0FB025EC908A0FB040CA1FB044074
:10345000A1FB02121CEB050C5B411CEB040C43EBC3
:10346000000011EB0E0142F10002411842F1000090
:10347000090941EA007038BDA59BC420CFF753E38A
:1034800010B5094C013AD2B2FF2A00D110BD500844
:1034900054F82030013054F820009BB243EA004336
:1034A00041F8043BEEE700BF046C004010B507484C
:1034B000013AD2B2FF2A00D110BD0C88530840F85F
:1034C00023404C88013340F82340F1E7046C00406E
:1034D00007B50122002001A9FFF7D2FF019803B030
:1034E0005DF804FB13B50446FFF7F2FFA04205D0D8
:1034F0000122002001A90194FFF7D8FF02B010BDFE
:103500007047000045F25552064B1A6003225A607C
:1035100040F2FF729A604CF6CC421A600122024BD4
:103520001A7070470030004050250020034B1B7874
:103530001BB14AF6AA22024B1A60704750250020A0
:1035400000300040044B1A682AB902F1804202F5AB
:103550000432526A1A6070474C2500204FF0807286
:10356000014B5A62704700BF0010024008B5FFF7D8
:10357000E9FF024B1868C0F3407008BD4C250020DD
:1035800008B5FFF7DFFF024B1868C0F3007008BDF5
:103590004C250020EFF30983203383F309880023AF
:1035A00083F3118870470000302080F3118862B6E1
:1035B0000C4B0D4AD96821F4E0610904090C0A4357
:1035C000DA60D3F8FC20094942F08072C3F8FC208D
:1035D0000A6842F001020A602022DA7783F82200AA
:1035E000704700BF00ED00E00003FA05001000E0A6
:1035F000302310B583F311880B4B5B6813F4006321
:103600000FD0EFF309844FF08073203CE36184F323
:103610000988FFF7CBFC10B1044BA36110BD044B2C
:10362000FBE783F31188F9E700ED00E027060008C7
:103630002A06000870470000FEE700000A4B0B480E
:103640000B4A90420BD30B4BC11EDA1C121A22F00C
:1036500003028B4238BF00220021FDF79DBE53F8C4
:10366000041B40F8041BECE7D43B0008D4250020E1
:10367000D4250020D4250020FEE7000070B50025E9
:1036800004461A4B86B05860856201630E46FFF708
:103690008BFF04F11003C4E904334FF0FF33A3613F
:1036A000134BE561D9692B460A462046C4E9082335
:1036B00004F134018023C4E900440E4AA560E562A8
:1036C0002565FFF7ABFC01230B4AE0600375009210
:1036D000726868460192B268CDE90223074BCDE9D2
:1036E0000435FFF7C3FC06B070BD00BF30250020D5
:1036F000D8230020643B0008693B000879360008A5
:1037000000F030B808B500F063F9FFF76FFCBDE8D2
:103710000840FFF717BF0000704700004FF0FF316F
:103720000E4B1A6919611A6900221A611869D86862
:10373000D960D968DA60DA68DA6942F08052DA6111
:10374000DA69DA6942F00062DA61054ADB69136816
:1037500043F48073136000F01BB900BF00100240F7
:1037600000700040194B1A6842F001021A601A6892
:103770009007FCD51A6802F0F9021A6000225A601C
:103780005A6812F00C0FFBD11A6842F480321A60AA
:103790001A689103FCD55A6842F4E8125A601A6814
:1037A00042F080721A601A689201FCD51221084A10
:1037B0005A60084A11605A6842F002025A605A6818
:1037C00002F00C02082AFAD1704700BF0010024034
:1037D00000641D0000200240084A08B551691368C2
:1037E0000B4003F00103536123B1054A13680BB189
:1037F00050689847BDE80840FFF7FABE0004014052
:1038000054250020084A08B5516913680B4003F09D
:103810000203536123B1054A93680BB1D0689847FE
:10382000BDE80840FFF7E4BE000401405425002035
:10383000084A08B5516913680B4003F0040353614B
:1038400023B1054A13690BB150699847BDE8084098
:10385000FFF7CEBE0004014054250020084A08B5F9
:10386000516913680B4003F00803536123B1054A03
:1038700093690BB1D0699847BDE80840FFF7B8BE1F
:103880000004014054250020084A08B55169136816
:103890000B4003F01003536123B1054A136A0BB1C7
:1038A000506A9847BDE80840FFF7A2BE00040140F7
:1038B00054250020174B10B55A691C68144004F4B5
:1038C00078725A61A30604D5134A936A0BB1D06A81
:1038D0009847600604D5104A136B0BB1506B98479C
:1038E000210604D50C4A936B0BB1D06B9847E205C7
:1038F00004D5094A136C0BB1506C9847A30504D545
:10390000054A936C0BB1D06C9847BDE81040FFF7A7
:103910006FBE00BF00040140542500201A4B10B5B3
:103920005A691C68144004F47C425A61620504D54B
:10393000164A136D0BB1506D9847230504D5134AF1
:10394000936D0BB1D06D9847E00404D50F4A136E08
:103950000BB1506E9847A10404D50C4A936E0BB17D
:10396000D06E9847620404D5084A136F0BB1506FAC
:103970009847230404D5054A936F0BB1D06F98473D
:10398000BDE81040FFF734BE00040140542500207C
:10399000062108B50846FFF70FFA06210720FFF7B2
:1039A0000BFA06210820FFF707FA06210920FFF786
:1039B00003FA06210A20FFF7FFF906211720FFF777
:1039C000FBF9BDE8084006212820FFF7F5B9000003
:1039D00008B5FFF7A3FE054800F00CF8FFF70AFA58
:1039E000FFF79AFEBDE8084000F002B8703B0008FF
:1039F00000F042B8002319461C4A0133102BC2E9DB
:103A0000001102F10802F8D1194B9A6942F07D02C7
:103A10009A619B690268174BDA6082685A60426853
:103A20001A60C26803F58063DA6042695A6002690D
:103A30001A608269C3F80C24026AC3F80424C269BC
:103A4000C3F80024426AC3F80C28C26AC3F80428E9
:103A5000826AC3F80028026BC3F80C2C826BC3F88F
:103A6000042C426BC3F8002C704700BF5425002083
:103A700000100240000801404FF0E023044A0821F2
:103A80005A6100229A6107220B201A61FFF7AAB936
:103A90003F19010008B5302383F31188FFF7BCFA02
:103AA000002383F3118808BD08B5FFF7F3FFBDE8D5
:103AB0000840FFF79DBD000010B501390244904257
:103AC00001D1002005E0037811F8014FA34201D095
:103AD000181B10BD0130F2E72DE9F0419BB10446FF
:103AE000C91A1778014403F1FF3C8C42204601D9E2
:103AF000002008E005780134BD42F6D10CEB040546
:103B0000D618A54201D1BDE8F08115F8018D16F84F
:103B100001EDF045F5D0E8E7034611F8012B03F875
:103B2000012B002AF9D170474A4346485F4D756C16
:103B300074695F54656D705F556E697400000000B4
:103B400040A2E4F1646891060041A3E5F265699240
:103B50000700000063300000543B000830240020C0
:103B6000302500206D61696E0069646C650000009D
:103B70000000000044444444444444440003000022
:103B800044444444954444440000000044444444B4
:103B90004444144400000000444444444444444425
:103BA00000000000444444444444444400000000F5
:103BB000E803000000000000009C0100000000007D
:103BC000640000000000000040420F00FE2A0100D7
:043BD000D20400001B
:00000001FF
